{
  "contractName": "Asset",
  "abi": [
    {
      "constant": true,
      "inputs": [],
      "name": "lastOwner",
      "outputs": [
        {
          "name": "",
          "type": "address"
        }
      ],
      "payable": false,
      "stateMutability": "view",
      "type": "function"
    },
    {
      "constant": true,
      "inputs": [],
      "name": "owner",
      "outputs": [
        {
          "name": "",
          "type": "address"
        }
      ],
      "payable": false,
      "stateMutability": "view",
      "type": "function"
    },
    {
      "constant": true,
      "inputs": [],
      "name": "pendingOwner",
      "outputs": [
        {
          "name": "",
          "type": "address"
        }
      ],
      "payable": false,
      "stateMutability": "view",
      "type": "function"
    },
    {
      "constant": true,
      "inputs": [
        {
          "name": "",
          "type": "uint256"
        }
      ],
      "name": "data",
      "outputs": [
        {
          "name": "",
          "type": "string"
        }
      ],
      "payable": false,
      "stateMutability": "view",
      "type": "function"
    },
    {
      "inputs": [
        {
          "name": "_data",
          "type": "string"
        }
      ],
      "payable": false,
      "stateMutability": "nonpayable",
      "type": "constructor"
    },
    {
      "payable": false,
      "stateMutability": "nonpayable",
      "type": "fallback"
    },
    {
      "anonymous": false,
      "inputs": [
        {
          "indexed": true,
          "name": "owner",
          "type": "address"
        },
        {
          "indexed": true,
          "name": "pendingOwner",
          "type": "address"
        }
      ],
      "name": "PendingTransfer",
      "type": "event"
    },
    {
      "anonymous": false,
      "inputs": [
        {
          "indexed": true,
          "name": "previousOwner",
          "type": "address"
        },
        {
          "indexed": true,
          "name": "newOwner",
          "type": "address"
        }
      ],
      "name": "OwnershipTransferred",
      "type": "event"
    },
    {
      "anonymous": false,
      "inputs": [
        {
          "indexed": true,
          "name": "owner",
          "type": "address"
        },
        {
          "indexed": true,
          "name": "trustee",
          "type": "address"
        }
      ],
      "name": "Approval",
      "type": "event"
    },
    {
      "anonymous": false,
      "inputs": [
        {
          "indexed": true,
          "name": "owner",
          "type": "address"
        },
        {
          "indexed": true,
          "name": "trustee",
          "type": "address"
        }
      ],
      "name": "RemovedApproval",
      "type": "event"
    },
    {
      "anonymous": false,
      "inputs": [
        {
          "indexed": true,
          "name": "owner",
          "type": "address"
        },
        {
          "indexed": true,
          "name": "data",
          "type": "string"
        }
      ],
      "name": "AppendedData",
      "type": "event"
    },
    {
      "anonymous": false,
      "inputs": [
        {
          "indexed": true,
          "name": "lastOwner",
          "type": "address"
        }
      ],
      "name": "AssetDestroyed",
      "type": "event"
    },
    {
      "constant": false,
      "inputs": [
        {
          "name": "_data",
          "type": "string"
        }
      ],
      "name": "appendData",
      "outputs": [
        {
          "name": "",
          "type": "bool"
        }
      ],
      "payable": false,
      "stateMutability": "nonpayable",
      "type": "function"
    },
    {
      "constant": false,
      "inputs": [
        {
          "name": "newOwner",
          "type": "address"
        }
      ],
      "name": "transfer",
      "outputs": [],
      "payable": false,
      "stateMutability": "nonpayable",
      "type": "function"
    },
    {
      "constant": false,
      "inputs": [
        {
          "name": "newOwner",
          "type": "address"
        }
      ],
      "name": "transferFrom",
      "outputs": [],
      "payable": false,
      "stateMutability": "nonpayable",
      "type": "function"
    },
    {
      "constant": false,
      "inputs": [],
      "name": "claim",
      "outputs": [],
      "payable": false,
      "stateMutability": "nonpayable",
      "type": "function"
    },
    {
      "constant": false,
      "inputs": [
        {
          "name": "_trustee",
          "type": "address"
        }
      ],
      "name": "approve",
      "outputs": [
        {
          "name": "",
          "type": "bool"
        }
      ],
      "payable": false,
      "stateMutability": "nonpayable",
      "type": "function"
    },
    {
      "constant": false,
      "inputs": [
        {
          "name": "_trustee",
          "type": "address"
        }
      ],
      "name": "removeApproval",
      "outputs": [
        {
          "name": "",
          "type": "bool"
        }
      ],
      "payable": false,
      "stateMutability": "nonpayable",
      "type": "function"
    },
    {
      "constant": true,
      "inputs": [
        {
          "name": "_trustee",
          "type": "address"
        }
      ],
      "name": "allowance",
      "outputs": [
        {
          "name": "",
          "type": "bool"
        }
      ],
      "payable": false,
      "stateMutability": "view",
      "type": "function"
    }
  ],
  "bytecode": "0x60806040523480156200001157600080fd5b506040516200127c3803806200127c833981018060405260208110156200003757600080fd5b8101908080516401000000008111156200005057600080fd5b828101905060208101848111156200006757600080fd5b81518560018202830111640100000000821117156200008557600080fd5b5050929190505050336000806101000a81548173ffffffffffffffffffffffffffffffffffffffff021916908373ffffffffffffffffffffffffffffffffffffffff160217905550620000e781620000ef640100000000026401000000009004565b50506200030f565b60008060009054906101000a900473ffffffffffffffffffffffffffffffffffffffff1673ffffffffffffffffffffffffffffffffffffffff163373ffffffffffffffffffffffffffffffffffffffff161415156200014d57600080fd5b60038290806001815401808255809150509060018203906000526020600020016000909192909190915090805190602001906200018c92919062000260565b5050816040518082805190602001908083835b602083101515620001c657805182526020820191506020810190506020830392506200019f565b6001836020036101000a03801982511681845116808217855250505050505090500191505060405180910390206000809054906101000a900473ffffffffffffffffffffffffffffffffffffffff1673ffffffffffffffffffffffffffffffffffffffff167f51eed2742dd9e43f98bb8c1e7aeeac54921c5af7d11acba567ead58e86c88b8060405160405180910390a360019050919050565b828054600181600116156101000203166002900490600052602060002090601f016020900481019282601f10620002a357805160ff1916838001178555620002d4565b82800160010185558215620002d4579182015b82811115620002d3578251825591602001919060010190620002b6565b5b509050620002e39190620002e7565b5090565b6200030c91905b8082111562000308576000816000905550600101620002ee565b5090565b90565b610f5d806200031f6000396000f3fe608060405234801561001057600080fd5b50600436106100c6576000357c0100000000000000000000000000000000000000000000000000000000900480638a56ca451161008e5780638a56ca45146102a15780638da5cb5b146102eb578063daea85c514610335578063e30c397814610391578063e4759493146103db578063f0ba84401461041f576100c6565b80631a695230146100c85780633e5beab91461010c5780634e71d92d146101685780637a59dc80146101725780637cab5e8c14610245575b005b61010a600480360360208110156100de57600080fd5b81019080803573ffffffffffffffffffffffffffffffffffffffff1690602001909291905050506104c6565b005b61014e6004803603602081101561012257600080fd5b81019080803573ffffffffffffffffffffffffffffffffffffffff169060200190929190505050610602565b604051808215151515815260200191505060405180910390f35b6101706106b6565b005b61022b6004803603602081101561018857600080fd5b81019080803590602001906401000000008111156101a557600080fd5b8201836020820111156101b757600080fd5b803590602001918460018302840111640100000000831117156101d957600080fd5b91908080601f016020809104026020016040519081016040528093929190818152602001838380828437600081840152601f19601f820116905080830192505050505050509192919290505050610855565b604051808215151515815260200191505060405180910390f35b6102876004803603602081101561025b57600080fd5b81019080803573ffffffffffffffffffffffffffffffffffffffff1690602001909291905050506109c1565b604051808215151515815260200191505060405180910390f35b6102a9610b16565b604051808273ffffffffffffffffffffffffffffffffffffffff1673ffffffffffffffffffffffffffffffffffffffff16815260200191505060405180910390f35b6102f3610b3c565b604051808273ffffffffffffffffffffffffffffffffffffffff1673ffffffffffffffffffffffffffffffffffffffff16815260200191505060405180910390f35b6103776004803603602081101561034b57600080fd5b81019080803573ffffffffffffffffffffffffffffffffffffffff169060200190929190505050610b61565b604051808215151515815260200191505060405180910390f35b610399610cb6565b604051808273ffffffffffffffffffffffffffffffffffffffff1673ffffffffffffffffffffffffffffffffffffffff16815260200191505060405180910390f35b61041d600480360360208110156103f157600080fd5b81019080803573ffffffffffffffffffffffffffffffffffffffff169060200190929190505050610cdc565b005b61044b6004803603602081101561043557600080fd5b8101908080359060200190929190505050610dd1565b6040518080602001828103825283818151815260200191508051906020019080838360005b8381101561048b578082015181840152602081019050610470565b50505050905090810190601f1680156104b85780820380516001836020036101000a031916815260200191505b509250505060405180910390f35b6000809054906101000a900473ffffffffffffffffffffffffffffffffffffffff1673ffffffffffffffffffffffffffffffffffffffff163373ffffffffffffffffffffffffffffffffffffffff1614151561052157600080fd5b80600260006101000a81548173ffffffffffffffffffffffffffffffffffffffff021916908373ffffffffffffffffffffffffffffffffffffffff160217905550600260009054906101000a900473ffffffffffffffffffffffffffffffffffffffff1673ffffffffffffffffffffffffffffffffffffffff166000809054906101000a900473ffffffffffffffffffffffffffffffffffffffff1673ffffffffffffffffffffffffffffffffffffffff167f133753d462a12d5f2ce18e0f7e98981f0c2fcb522e74287ab1fbe94ad415a64960405160405180910390a350565b6000600460008060009054906101000a900473ffffffffffffffffffffffffffffffffffffffff1673ffffffffffffffffffffffffffffffffffffffff1673ffffffffffffffffffffffffffffffffffffffff16815260200190815260200160002060008373ffffffffffffffffffffffffffffffffffffffff1673ffffffffffffffffffffffffffffffffffffffff16815260200190815260200160002060009054906101000a900460ff169050919050565b600260009054906101000a900473ffffffffffffffffffffffffffffffffffffffff1673ffffffffffffffffffffffffffffffffffffffff163373ffffffffffffffffffffffffffffffffffffffff1614151561071257600080fd5b600260009054906101000a900473ffffffffffffffffffffffffffffffffffffffff166000806101000a81548173ffffffffffffffffffffffffffffffffffffffff021916908373ffffffffffffffffffffffffffffffffffffffff1602179055506000600260006101000a81548173ffffffffffffffffffffffffffffffffffffffff021916908373ffffffffffffffffffffffffffffffffffffffff160217905550600260009054906101000a900473ffffffffffffffffffffffffffffffffffffffff1673ffffffffffffffffffffffffffffffffffffffff166000809054906101000a900473ffffffffffffffffffffffffffffffffffffffff1673ffffffffffffffffffffffffffffffffffffffff167f8be0079c531659141344cd1fd0a4f28419497f9722a3daafe3b4186f6b6457e060405160405180910390a3565b60008060009054906101000a900473ffffffffffffffffffffffffffffffffffffffff1673ffffffffffffffffffffffffffffffffffffffff163373ffffffffffffffffffffffffffffffffffffffff161415156108b257600080fd5b60038290806001815401808255809150509060018203906000526020600020016000909192909190915090805190602001906108ef929190610e8c565b5050816040518082805190602001908083835b6020831015156109275780518252602082019150602081019050602083039250610902565b6001836020036101000a03801982511681845116808217855250505050505090500191505060405180910390206000809054906101000a900473ffffffffffffffffffffffffffffffffffffffff1673ffffffffffffffffffffffffffffffffffffffff167f51eed2742dd9e43f98bb8c1e7aeeac54921c5af7d11acba567ead58e86c88b8060405160405180910390a360019050919050565b60008060009054906101000a900473ffffffffffffffffffffffffffffffffffffffff1673ffffffffffffffffffffffffffffffffffffffff163373ffffffffffffffffffffffffffffffffffffffff16141515610a1e57600080fd5b6000600460003373ffffffffffffffffffffffffffffffffffffffff1673ffffffffffffffffffffffffffffffffffffffff16815260200190815260200160002060008473ffffffffffffffffffffffffffffffffffffffff1673ffffffffffffffffffffffffffffffffffffffff16815260200190815260200160002060006101000a81548160ff0219169083151502179055508173ffffffffffffffffffffffffffffffffffffffff163373ffffffffffffffffffffffffffffffffffffffff167fd534ffa020e5bde6947979322239b98eeeb339da776b2bb48680b800fc41d07960405160405180910390a360019050919050565b600160009054906101000a900473ffffffffffffffffffffffffffffffffffffffff1681565b6000809054906101000a900473ffffffffffffffffffffffffffffffffffffffff1681565b60008060009054906101000a900473ffffffffffffffffffffffffffffffffffffffff1673ffffffffffffffffffffffffffffffffffffffff163373ffffffffffffffffffffffffffffffffffffffff16141515610bbe57600080fd5b6001600460003373ffffffffffffffffffffffffffffffffffffffff1673ffffffffffffffffffffffffffffffffffffffff16815260200190815260200160002060008473ffffffffffffffffffffffffffffffffffffffff1673ffffffffffffffffffffffffffffffffffffffff16815260200190815260200160002060006101000a81548160ff0219169083151502179055508173ffffffffffffffffffffffffffffffffffffffff163373ffffffffffffffffffffffffffffffffffffffff167ff37f546c25e850257cc0c94f92bec94a17e2f0e884ddda268a25d8144b70eb6a60405160405180910390a360019050919050565b600260009054906101000a900473ffffffffffffffffffffffffffffffffffffffff1681565b610ce533610602565b1515610cf057600080fd5b80600260006101000a81548173ffffffffffffffffffffffffffffffffffffffff021916908373ffffffffffffffffffffffffffffffffffffffff160217905550600260009054906101000a900473ffffffffffffffffffffffffffffffffffffffff1673ffffffffffffffffffffffffffffffffffffffff166000809054906101000a900473ffffffffffffffffffffffffffffffffffffffff1673ffffffffffffffffffffffffffffffffffffffff167f133753d462a12d5f2ce18e0f7e98981f0c2fcb522e74287ab1fbe94ad415a64960405160405180910390a350565b600381815481101515610de057fe5b906000526020600020016000915090508054600181600116156101000203166002900480601f016020809104026020016040519081016040528092919081815260200182805460018160011615610100020316600290048015610e845780601f10610e5957610100808354040283529160200191610e84565b820191906000526020600020905b815481529060010190602001808311610e6757829003601f168201915b505050505081565b828054600181600116156101000203166002900490600052602060002090601f016020900481019282601f10610ecd57805160ff1916838001178555610efb565b82800160010185558215610efb579182015b82811115610efa578251825591602001919060010190610edf565b5b509050610f089190610f0c565b5090565b610f2e91905b80821115610f2a576000816000905550600101610f12565b5090565b9056fea165627a7a723058200e34b2cd129b9305f557bef39c34242257b79f8f3308a1c0e0a9ebd8135d30770029",
  "source": "pragma solidity ^0.5.2;\n\nimport \"./IAsset.sol\";\n\n/**\n * @title Asset\n * @dev The Asset contract has an owner who can transfer the ownership of the asset\n * an Asset contract is tracked via an AssetSeries contract\n */\ncontract Asset is IAsset {\n\n    address public owner;\n    address public lastOwner;\n    address public pendingOwner;\n    string[] public data;\n    mapping (address => mapping (address => bool)) internal allowed;\n\n    event PendingTransfer(\n        address indexed owner,\n        address indexed pendingOwner\n    );\n    event OwnershipTransferred(\n        address indexed previousOwner,\n        address indexed newOwner\n    );\n    event Approval(\n        address indexed owner,\n        address indexed trustee\n    );\n    event RemovedApproval(\n        address indexed owner,\n        address indexed trustee\n    );\n    event AppendedData(\n        address indexed owner,\n        string indexed data\n    );\n\n    /**\n    * @dev Modifier throws if called by any account other than the pendingOwner.\n    */\n    modifier onlyPendingOwner {\n        require(msg.sender == pendingOwner);\n        _;\n    }\n\n    /**\n    * @dev Throws if called by any account other than the owner.\n    */\n    modifier onlyOwner() {\n        require(msg.sender == owner);\n        _;\n    }\n\n    /**\n    * @dev The Asset constructor sets the original `owner` of the contract to the sender\n    * account.\n    */\n    constructor(string memory _data) public {\n        owner = msg.sender;\n        appendData(_data);\n    }\n\n    /*\n    * @dev fallback function\n    */\n    function() external {}\n\n    /**\n    * @dev Add data to the _data array\n    * @param _data string data\n    */\n    function appendData(string memory _data) onlyOwner public returns (bool) {\n        data.push(_data);\n        emit AppendedData(owner, _data);\n        return true;\n    }\n\n    /**\n    * @dev Allows the current owner to set the pendingOwner address.\n    * @param newOwner The address to transfer ownership to.\n    */\n    function transfer(address newOwner) onlyOwner public {\n        pendingOwner = newOwner;\n        emit PendingTransfer(owner, pendingOwner);\n    }\n\n\n    /**\n    * @dev Allows an approved trustee to set the pendingOwner address.\n    * @param newOwner The address to transfer ownership to.\n    */\n    function transferFrom(address newOwner) public {\n        require(allowance(msg.sender));\n        pendingOwner = newOwner;\n        emit PendingTransfer(owner, pendingOwner);\n    }\n\n    /**\n    * @dev Allows the pendingOwner address to finalize the transfer.\n    */\n    function claim() onlyPendingOwner public {\n        owner = pendingOwner;\n        pendingOwner = address(0);\n        emit OwnershipTransferred(owner, pendingOwner);\n    }\n\n    /**\n    * @dev Approve the passed address to transfer the Asset on behalf of msg.sender.\n    * @param _trustee The address which will spend the funds.\n    */\n    function approve(address _trustee) onlyOwner public returns (bool) {\n        allowed[msg.sender][_trustee] = true;\n        emit Approval(msg.sender, _trustee);\n        return true;\n    }\n\n    /**\n    * @dev Approve the passed address to transfer the Asset on behalf of msg.sender.\n    * @param _trustee The address which will spend the funds.\n    */\n    function removeApproval(address _trustee) onlyOwner public returns (bool) {\n        allowed[msg.sender][_trustee] = false;\n        emit RemovedApproval(msg.sender, _trustee);\n        return true;\n    }\n\n    /**\n    * @dev Function to check if a trustee is allowed to transfer on behalf the owner\n    * @param _trustee address The address which will spend the funds.\n    * @return A bool specifying if the trustee can still transfer the Asset\n    */\n    function allowance(address _trustee) public view returns (bool) {\n        return allowed[owner][_trustee];\n    }\n}\n",
  "sourcePath": "/Users/GustavoIbarra/Projects/Solidity/blockchain-asset-registry/contracts/Asset.sol",
  "compiler": {
    "name": "solc",
    "version": "0.5.2+commit.1df8f40c.Emscripten.clang"
  },
  "schemaVersion": "3.0.3",
  "updatedAt": "2019-03-16T17:31:05.142Z",
  "devdoc": {
    "details": "The Asset contract has an owner who can transfer the ownership of the asset an Asset contract is tracked via an AssetSeries contract",
    "methods": {
      "allowance(address)": {
        "details": "Function to check if a trustee is allowed to transfer on behalf the owner",
        "params": {
          "_trustee": "address The address which will spend the funds."
        },
        "return": "A bool specifying if the trustee can still transfer the Asset"
      },
      "appendData(string)": {
        "details": "Add data to the _data array",
        "params": {
          "_data": "string data"
        }
      },
      "approve(address)": {
        "details": "Approve the passed address to transfer the Asset on behalf of msg.sender.",
        "params": {
          "_trustee": "The address which will spend the funds."
        }
      },
      "claim()": {
        "details": "Allows the pendingOwner address to finalize the transfer."
      },
      "constructor": {
        "details": "The Asset constructor sets the original `owner` of the contract to the sender account."
      },
      "removeApproval(address)": {
        "details": "Approve the passed address to transfer the Asset on behalf of msg.sender.",
        "params": {
          "_trustee": "The address which will spend the funds."
        }
      },
      "transfer(address)": {
        "details": "Allows the current owner to set the pendingOwner address.",
        "params": {
          "newOwner": "The address to transfer ownership to."
        }
      },
      "transferFrom(address)": {
        "details": "Allows an approved trustee to set the pendingOwner address.",
        "params": {
          "newOwner": "The address to transfer ownership to."
        }
      }
    },
    "title": "Asset"
  },
  "userdoc": {
    "methods": {}
  }
}