{
  "contractName": "OwnableAssetRegistry",
  "abi": [
    {
      "constant": true,
      "inputs": [
        {
          "name": "",
          "type": "uint256"
        }
      ],
      "name": "assets",
      "outputs": [
        {
          "name": "",
          "type": "address"
        }
      ],
      "payable": false,
      "stateMutability": "view",
      "type": "function"
    },
    {
      "payable": false,
      "stateMutability": "nonpayable",
      "type": "fallback"
    },
    {
      "anonymous": false,
      "inputs": [
        {
          "indexed": false,
          "name": "issuer",
          "type": "address"
        },
        {
          "indexed": false,
          "name": "asset",
          "type": "address"
        }
      ],
      "name": "CreatedAsset",
      "type": "event"
    },
    {
      "constant": false,
      "inputs": [
        {
          "name": "_data",
          "type": "string"
        }
      ],
      "name": "newAsset",
      "outputs": [
        {
          "name": "",
          "type": "address"
        }
      ],
      "payable": false,
      "stateMutability": "nonpayable",
      "type": "function"
    },
    {
      "constant": true,
      "inputs": [],
      "name": "getAssetsCount",
      "outputs": [
        {
          "name": "count",
          "type": "uint256"
        }
      ],
      "payable": false,
      "stateMutability": "view",
      "type": "function"
    }
  ],
  "bytecode": "0x608060405234801561001057600080fd5b50610a7c806100206000396000f3fe608060405234801561001057600080fd5b506004361061005d577c010000000000000000000000000000000000000000000000000000000060003504630aac5dfd811461005f578063967fc2fa14610079578063cf35bdd014610148575b005b610067610165565b60408051918252519081900360200190f35b61011f6004803603602081101561008f57600080fd5b8101906020810181356401000000008111156100aa57600080fd5b8201836020820111156100bc57600080fd5b803590602001918460018302840111640100000000831117156100de57600080fd5b91908080601f01602080910402602001604051908101604052809392919081815260200183838082843760009201919091525092955061016f945050505050565b6040805173ffffffffffffffffffffffffffffffffffffffff9092168252519081900360200190f35b61011f6004803603602081101561015e57600080fd5b50356103c0565b6000546000190190565b60008061017a6103f5565b604051809103906000f080158015610196573d6000803e3d6000fd5b50600080546001810182558180527f290decd9548b62a8d60345a988386fc84ba6bc95484008f6362f93160ef3e56301805473ffffffffffffffffffffffffffffffffffffffff191673ffffffffffffffffffffffffffffffffffffffff84169081179091556040517f7a59dc800000000000000000000000000000000000000000000000000000000081526020600482018181528851602484015288519596509294637a59dc80948994938493604490910192908601918190849084905b8381101561026d578181015183820152602001610255565b50505050905090810190601f16801561029a5780820380516001836020036101000a031916815260200191505b5092505050602060405180830381600087803b1580156102b957600080fd5b505af11580156102cd573d6000803e3d6000fd5b505050506040513d60208110156102e357600080fd5b5050604080517ff2fde38b000000000000000000000000000000000000000000000000000000008152336004820152905173ffffffffffffffffffffffffffffffffffffffff83169163f2fde38b91602480830192600092919082900301818387803b15801561035257600080fd5b505af1158015610366573d6000803e3d6000fd5b50506040805133815273ffffffffffffffffffffffffffffffffffffffff8516602082015281517fa9a1cfca5832afb15f0ca2ca2ec327c3b9879838cd9d8a5035a1fb5e73ec7f459450908190039091019150a192915050565b60008054829081106103ce57fe5b60009182526020909120015473ffffffffffffffffffffffffffffffffffffffff16905081565b60405161064b806104068339019056fe6080604081905260018054600160a060020a031916331790819055600160a060020a0316906000907f8be0079c531659141344cd1fd0a4f28419497f9722a3daafe3b4186f6b6457e0908290a36105f08061005b6000396000f3fe608060405234801561001057600080fd5b506004361061009a576000357c0100000000000000000000000000000000000000000000000000000000900480638f32d59b116100785780638f32d59b14610182578063cce33f871461018a578063f0ba8440146101a4578063f2fde38b146102365761009a565b8063715018a61461009c5780637a59dc80146100a45780638da5cb5b1461015e575b005b61009a61025c565b61014a600480360360208110156100ba57600080fd5b8101906020810181356401000000008111156100d557600080fd5b8201836020820111156100e757600080fd5b8035906020019184600183028401116401000000008311171561010957600080fd5b91908080601f0160208091040260200160405190810160405280939291908181526020018383808284376000920191909152509295506102c6945050505050565b604080519115158252519081900360200190f35b6101666103bd565b60408051600160a060020a039092168252519081900360200190f35b61014a6103cd565b6101926103de565b60408051918252519081900360200190f35b6101c1600480360360208110156101ba57600080fd5b50356103e8565b6040805160208082528351818301528351919283929083019185019080838360005b838110156101fb5781810151838201526020016101e3565b50505050905090810190601f1680156102285780820380516001836020036101000a031916815260200191505b509250505060405180910390f35b61009a6004803603602081101561024c57600080fd5b5035600160a060020a031661048f565b6102646103cd565b151561026f57600080fd5b600154604051600091600160a060020a0316907f8be0079c531659141344cd1fd0a4f28419497f9722a3daafe3b4186f6b6457e0908390a36001805473ffffffffffffffffffffffffffffffffffffffff19169055565b60008054600181018083558280528351909161030b917f290decd9548b62a8d60345a988386fc84ba6bc95484008f6362f93160ef3e56390910190602086019061052c565b50507ff473313a26f504e39f730d568ace3fcdeea7e5c8bcaa13fc520fb6fe4e5e3803826103376103de565b6040518080602001838152602001828103825284818151815260200191508051906020019080838360005b8381101561037a578181015183820152602001610362565b50505050905090810190601f1680156103a75780820380516001836020036101000a031916815260200191505b50935050505060405180910390a1506001919050565b600154600160a060020a03165b90565b600154600160a060020a0316331490565b6000546000190190565b60008054829081106103f657fe5b600091825260209182902001805460408051601f60026000196101006001871615020190941693909304928301859004850281018501909152818152935090918301828280156104875780601f1061045c57610100808354040283529160200191610487565b820191906000526020600020905b81548152906001019060200180831161046a57829003601f168201915b505050505081565b6104976103cd565b15156104a257600080fd5b6104ab816104ae565b50565b600160a060020a03811615156104c357600080fd5b600154604051600160a060020a038084169216907f8be0079c531659141344cd1fd0a4f28419497f9722a3daafe3b4186f6b6457e090600090a36001805473ffffffffffffffffffffffffffffffffffffffff1916600160a060020a0392909216919091179055565b828054600181600116156101000203166002900490600052602060002090601f016020900481019282601f1061056d57805160ff191683800117855561059a565b8280016001018555821561059a579182015b8281111561059a57825182559160200191906001019061057f565b506105a69291506105aa565b5090565b6103ca91905b808211156105a657600081556001016105b056fea165627a7a7230582018f35771e963c10911e45fdee77e066741b4be71a6aa4748cd71acee83c3db7c0029a165627a7a7230582017089576f3627a2bdc68b9466660ec34d19fa00a64e56dc0f06afd00afd83c750029",
  "source": "pragma solidity ^0.5.2;\n\nimport \"./IRegistry.sol\";\nimport \"./OwnableAsset.sol\";\n\n/**\n * @title OwnableAssetRegistry\n * @dev creates and indexes OwnableAsset contracts\n */\ncontract OwnableAssetRegistry is IRegistry {\n\n    OwnableAsset[] public assets;\n    \n    event CreatedAsset( \n        address issuer,\n        OwnableAsset asset \n    );\n\n    /*\n    * @dev fallback function\n    */\n    function() external {}\n\n    /**\n    * @dev Add data to the _data array\n    * @param _data string data\n    */\n    function newAsset(string memory _data) public returns (address) {\n        OwnableAsset asset = new OwnableAsset();\n        assets.push(asset);\n        asset.appendData(_data);\n        asset.transferOwnership(msg.sender);\n        emit CreatedAsset(msg.sender, asset);\n        return address(asset);\n    }\n\n    /**\n    * @dev Gets the current index of the assets list\n    */\n    function getAssetsCount() public view returns (uint count) {\n        return assets.length - 1;\n    }\n}\n",
  "sourcePath": "/Users/GustavoIbarra/Projects/Solidity/blockchain-asset-registry/contracts/OwnableAssetRegistry.sol",
  "compiler": {
    "name": "solc",
    "version": "0.5.2+commit.1df8f40c.Emscripten.clang"
  },
  "schemaVersion": "3.0.3",
  "updatedAt": "2019-03-19T01:44:45.123Z",
  "devdoc": {
    "details": "creates and indexes OwnableAsset contracts",
    "methods": {
      "getAssetsCount()": {
        "details": "Gets the current index of the assets list"
      },
      "newAsset(string)": {
        "details": "Add data to the _data array",
        "params": {
          "_data": "string data"
        }
      }
    },
    "title": "OwnableAssetRegistry"
  },
  "userdoc": {
    "methods": {}
  }
}