{
  "contractName": "OwnableAsset",
  "abi": [
    {
      "constant": false,
      "inputs": [],
      "name": "renounceOwnership",
      "outputs": [],
      "payable": false,
      "stateMutability": "nonpayable",
      "type": "function"
    },
    {
      "constant": false,
      "inputs": [
        {
          "name": "_data",
          "type": "string"
        }
      ],
      "name": "appendData",
      "outputs": [
        {
          "name": "",
          "type": "bool"
        }
      ],
      "payable": false,
      "stateMutability": "nonpayable",
      "type": "function"
    },
    {
      "constant": true,
      "inputs": [],
      "name": "owner",
      "outputs": [
        {
          "name": "",
          "type": "address"
        }
      ],
      "payable": false,
      "stateMutability": "view",
      "type": "function"
    },
    {
      "constant": true,
      "inputs": [],
      "name": "isOwner",
      "outputs": [
        {
          "name": "",
          "type": "bool"
        }
      ],
      "payable": false,
      "stateMutability": "view",
      "type": "function"
    },
    {
      "constant": true,
      "inputs": [],
      "name": "getVersionIndex",
      "outputs": [
        {
          "name": "count",
          "type": "uint256"
        }
      ],
      "payable": false,
      "stateMutability": "view",
      "type": "function"
    },
    {
      "constant": true,
      "inputs": [
        {
          "name": "",
          "type": "uint256"
        }
      ],
      "name": "data",
      "outputs": [
        {
          "name": "",
          "type": "string"
        }
      ],
      "payable": false,
      "stateMutability": "view",
      "type": "function"
    },
    {
      "constant": false,
      "inputs": [
        {
          "name": "newOwner",
          "type": "address"
        }
      ],
      "name": "transferOwnership",
      "outputs": [],
      "payable": false,
      "stateMutability": "nonpayable",
      "type": "function"
    },
    {
      "payable": false,
      "stateMutability": "nonpayable",
      "type": "fallback"
    },
    {
      "anonymous": false,
      "inputs": [
        {
          "indexed": true,
          "name": "previousOwner",
          "type": "address"
        },
        {
          "indexed": true,
          "name": "newOwner",
          "type": "address"
        }
      ],
      "name": "OwnershipTransferred",
      "type": "event"
    },
    {
      "anonymous": false,
      "inputs": [
        {
          "indexed": false,
          "name": "data",
          "type": "string"
        },
        {
          "indexed": false,
          "name": "versionIndex",
          "type": "uint256"
        }
      ],
      "name": "AppendedData",
      "type": "event"
    }
  ],
  "bytecode": "0x6080604081905260018054600160a060020a031916331790819055600160a060020a0316906000907f8be0079c531659141344cd1fd0a4f28419497f9722a3daafe3b4186f6b6457e0908290a36105f08061005b6000396000f3fe608060405234801561001057600080fd5b506004361061009a576000357c0100000000000000000000000000000000000000000000000000000000900480638f32d59b116100785780638f32d59b14610182578063cce33f871461018a578063f0ba8440146101a4578063f2fde38b146102365761009a565b8063715018a61461009c5780637a59dc80146100a45780638da5cb5b1461015e575b005b61009a61025c565b61014a600480360360208110156100ba57600080fd5b8101906020810181356401000000008111156100d557600080fd5b8201836020820111156100e757600080fd5b8035906020019184600183028401116401000000008311171561010957600080fd5b91908080601f0160208091040260200160405190810160405280939291908181526020018383808284376000920191909152509295506102c6945050505050565b604080519115158252519081900360200190f35b6101666103bd565b60408051600160a060020a039092168252519081900360200190f35b61014a6103cd565b6101926103de565b60408051918252519081900360200190f35b6101c1600480360360208110156101ba57600080fd5b50356103e8565b6040805160208082528351818301528351919283929083019185019080838360005b838110156101fb5781810151838201526020016101e3565b50505050905090810190601f1680156102285780820380516001836020036101000a031916815260200191505b509250505060405180910390f35b61009a6004803603602081101561024c57600080fd5b5035600160a060020a031661048f565b6102646103cd565b151561026f57600080fd5b600154604051600091600160a060020a0316907f8be0079c531659141344cd1fd0a4f28419497f9722a3daafe3b4186f6b6457e0908390a36001805473ffffffffffffffffffffffffffffffffffffffff19169055565b60008054600181018083558280528351909161030b917f290decd9548b62a8d60345a988386fc84ba6bc95484008f6362f93160ef3e56390910190602086019061052c565b50507ff473313a26f504e39f730d568ace3fcdeea7e5c8bcaa13fc520fb6fe4e5e3803826103376103de565b6040518080602001838152602001828103825284818151815260200191508051906020019080838360005b8381101561037a578181015183820152602001610362565b50505050905090810190601f1680156103a75780820380516001836020036101000a031916815260200191505b50935050505060405180910390a1506001919050565b600154600160a060020a03165b90565b600154600160a060020a0316331490565b6000546000190190565b60008054829081106103f657fe5b600091825260209182902001805460408051601f60026000196101006001871615020190941693909304928301859004850281018501909152818152935090918301828280156104875780601f1061045c57610100808354040283529160200191610487565b820191906000526020600020905b81548152906001019060200180831161046a57829003601f168201915b505050505081565b6104976103cd565b15156104a257600080fd5b6104ab816104ae565b50565b600160a060020a03811615156104c357600080fd5b600154604051600160a060020a038084169216907f8be0079c531659141344cd1fd0a4f28419497f9722a3daafe3b4186f6b6457e090600090a36001805473ffffffffffffffffffffffffffffffffffffffff1916600160a060020a0392909216919091179055565b828054600181600116156101000203166002900490600052602060002090601f016020900481019282601f1061056d57805160ff191683800117855561059a565b8280016001018555821561059a579182015b8281111561059a57825182559160200191906001019061057f565b506105a69291506105aa565b5090565b6103ca91905b808211156105a657600081556001016105b056fea165627a7a7230582018f35771e963c10911e45fdee77e066741b4be71a6aa4748cd71acee83c3db7c0029",
  "source": "pragma solidity ^0.5.2;\n\nimport \"./Versioned.sol\";\nimport \"node_modules/openzeppelin-solidity/contracts/ownership/Ownable.sol\";\n\n/**\n * @title OwnableAsset\n * @dev Register whatever you own in the Ethereum blockchain\n * blockchainassetregistry.com\n */\ncontract OwnableAsset is Versioned, Ownable {\n}\n",
  "sourcePath": "/Users/GustavoIbarra/Projects/Solidity/blockchain-asset-registry/contracts/OwnableAsset.sol",
  "compiler": {
    "name": "solc",
    "version": "0.5.2+commit.1df8f40c.Emscripten.clang"
  },
  "schemaVersion": "3.0.3",
  "updatedAt": "2019-03-19T01:44:45.116Z",
  "devdoc": {
    "details": "Register whatever you own in the Ethereum blockchain blockchainassetregistry.com",
    "methods": {
      "appendData(string)": {
        "details": "Add data to the _data array",
        "params": {
          "_data": "string data"
        }
      },
      "getVersionIndex()": {
        "details": "Gets the current index of the data list"
      },
      "isOwner()": {
        "return": "true if `msg.sender` is the owner of the contract."
      },
      "owner()": {
        "return": "the address of the owner."
      },
      "renounceOwnership()": {
        "details": "Allows the current owner to relinquish control of the contract. It will not be possible to call the functions with the `onlyOwner` modifier anymore."
      },
      "transferOwnership(address)": {
        "details": "Allows the current owner to transfer control of the contract to a newOwner.",
        "params": {
          "newOwner": "The address to transfer ownership to."
        }
      }
    },
    "title": "OwnableAsset"
  },
  "userdoc": {
    "methods": {
      "renounceOwnership()": {
        "notice": "Renouncing ownership will leave the contract without an owner, thereby removing any functionality that is only available to the owner."
      }
    }
  }
}