{
  "contractName": "OwnableAssetRegistry",
  "abi": [
    {
      "constant": true,
      "inputs": [
        {
          "name": "",
          "type": "uint256"
        }
      ],
      "name": "assets",
      "outputs": [
        {
          "name": "",
          "type": "address"
        }
      ],
      "payable": false,
      "stateMutability": "view",
      "type": "function"
    },
    {
      "payable": false,
      "stateMutability": "nonpayable",
      "type": "fallback"
    },
    {
      "anonymous": false,
      "inputs": [
        {
          "indexed": true,
          "name": "issuer",
          "type": "address"
        },
        {
          "indexed": true,
          "name": "asset",
          "type": "address"
        }
      ],
      "name": "CreatedAsset",
      "type": "event"
    },
    {
      "constant": false,
      "inputs": [
        {
          "name": "_data",
          "type": "string"
        }
      ],
      "name": "newAsset",
      "outputs": [
        {
          "name": "",
          "type": "address"
        }
      ],
      "payable": false,
      "stateMutability": "nonpayable",
      "type": "function"
    }
  ],
  "bytecode": "0x608060405234801561001057600080fd5b50610a26806100206000396000f3fe608060405234801561001057600080fd5b5060043610610052577c01000000000000000000000000000000000000000000000000000000006000350463967fc2fa8114610054578063cf35bdd014610123575b005b6100fa6004803603602081101561006a57600080fd5b81019060208101813564010000000081111561008557600080fd5b82018360208201111561009757600080fd5b803590602001918460018302840111640100000000831117156100b957600080fd5b91908080601f016020809104026020016040519081016040528093929190818152602001838380828437600092019190915250929550610140945050505050565b6040805173ffffffffffffffffffffffffffffffffffffffff9092168252519081900360200190f35b6100fa6004803603602081101561013957600080fd5b5035610384565b60008061014b6103b9565b604051809103906000f080158015610167573d6000803e3d6000fd5b50600080546001810182558180527f290decd9548b62a8d60345a988386fc84ba6bc95484008f6362f93160ef3e56301805473ffffffffffffffffffffffffffffffffffffffff191673ffffffffffffffffffffffffffffffffffffffff84169081179091556040517f7a59dc800000000000000000000000000000000000000000000000000000000081526020600482018181528851602484015288519596509294637a59dc80948994938493604490910192908601918190849084905b8381101561023e578181015183820152602001610226565b50505050905090810190601f16801561026b5780820380516001836020036101000a031916815260200191505b5092505050602060405180830381600087803b15801561028a57600080fd5b505af115801561029e573d6000803e3d6000fd5b505050506040513d60208110156102b457600080fd5b5050604080517ff2fde38b000000000000000000000000000000000000000000000000000000008152336004820152905173ffffffffffffffffffffffffffffffffffffffff83169163f2fde38b91602480830192600092919082900301818387803b15801561032357600080fd5b505af1158015610337573d6000803e3d6000fd5b505060405173ffffffffffffffffffffffffffffffffffffffff841692503391507fa9a1cfca5832afb15f0ca2ca2ec327c3b9879838cd9d8a5035a1fb5e73ec7f4590600090a392915050565b600080548290811061039257fe5b60009182526020909120015473ffffffffffffffffffffffffffffffffffffffff16905081565b604051610631806103ca8339019056fe6080604081905260028054600160a060020a031916331790819055600160a060020a0316906000907f8be0079c531659141344cd1fd0a4f28419497f9722a3daafe3b4186f6b6457e0908290a36105d68061005b6000396000f3fe608060405234801561001057600080fd5b506004361061009a576000357c0100000000000000000000000000000000000000000000000000000000900480638f32d59b116100785780638f32d59b14610182578063f0ba84401461018a578063f2fde38b1461021c578063ff1d2712146102425761009a565b8063715018a61461009c5780637a59dc80146100a45780638da5cb5b1461015e575b005b61009a61025c565b61014a600480360360208110156100ba57600080fd5b8101906020810181356401000000008111156100d557600080fd5b8201836020820111156100e757600080fd5b8035906020019184600183028401116401000000008311171561010957600080fd5b91908080601f0160208091040260200160405190810160405280939291908181526020018383808284376000920191909152509295506102c6945050505050565b604080519115158252519081900360200190f35b6101666103a7565b60408051600160a060020a039092168252519081900360200190f35b61014a6103b7565b6101a7600480360360208110156101a057600080fd5b50356103c8565b6040805160208082528351818301528351919283929083019185019080838360005b838110156101e15781810151838201526020016101c9565b50505050905090810190601f16801561020e5780820380516001836020036101000a031916815260200191505b509250505060405180910390f35b61009a6004803603602081101561023257600080fd5b5035600160a060020a031661046f565b61024a61048e565b60408051918252519081900360200190f35b6102646103b7565b151561026f57600080fd5b600254604051600091600160a060020a0316907f8be0079c531659141344cd1fd0a4f28419497f9722a3daafe3b4186f6b6457e0908390a36002805473ffffffffffffffffffffffffffffffffffffffff19169055565b6001805480820180835560009283528351909161030c917fb10e2d527612073b26eecdfd717e6a320cf44b4afac2b0732d9fcbe2b7fa0cf6909101906020860190610512565b50506001546000190160008190556040518351849190819060208401908083835b6020831061034c5780518252601f19909201916020918201910161032d565b5181516020939093036101000a60001901801990911692169190911790526040519201829003822093507ff473313a26f504e39f730d568ace3fcdeea7e5c8bcaa13fc520fb6fe4e5e380392506000919050a3506001919050565b600254600160a060020a03165b90565b600254600160a060020a0316331490565b60018054829081106103d657fe5b600091825260209182902001805460408051601f60026000196101006001871615020190941693909304928301859004850281018501909152818152935090918301828280156104675780601f1061043c57610100808354040283529160200191610467565b820191906000526020600020905b81548152906001019060200180831161044a57829003601f168201915b505050505081565b6104776103b7565b151561048257600080fd5b61048b81610494565b50565b60005481565b600160a060020a03811615156104a957600080fd5b600254604051600160a060020a038084169216907f8be0079c531659141344cd1fd0a4f28419497f9722a3daafe3b4186f6b6457e090600090a36002805473ffffffffffffffffffffffffffffffffffffffff1916600160a060020a0392909216919091179055565b828054600181600116156101000203166002900490600052602060002090601f016020900481019282601f1061055357805160ff1916838001178555610580565b82800160010185558215610580579182015b82811115610580578251825591602001919060010190610565565b5061058c929150610590565b5090565b6103b491905b8082111561058c576000815560010161059656fea165627a7a72305820b453b077ecc84282265ba69a650fe307c1a3cf13034e2fa5940bb06359e09d3e0029a165627a7a723058205551c1a24653bcdf06072e5898a03c356a8e7e40c63b3145f05e2797c4b1745d0029",
  "source": "pragma solidity ^0.5.2;\n\nimport \"./IRegistry.sol\";\nimport \"./OwnableAsset.sol\";\n\n/**\n * @title OwnableAssetRegistry\n * @dev creates and indexes OwnableAsset contracts\n */\ncontract OwnableAssetRegistry is IRegistry {\n\n    OwnableAsset[] public assets;\n    \n    event CreatedAsset( \n        address indexed issuer,\n        OwnableAsset indexed asset \n    );\n\n    /*\n    * @dev fallback function\n    */\n    function() external {}\n\n    /**\n    * @dev Add data to the _data array\n    * @param _data string data\n    */\n    function newAsset(string memory _data) public returns (address) {\n        OwnableAsset asset = new OwnableAsset();\n        assets.push(asset);\n        asset.appendData(_data);\n        asset.transferOwnership(msg.sender);\n        emit CreatedAsset(msg.sender, asset);\n        return address(asset);\n    }\n}\n",
  "sourcePath": "/Users/GustavoIbarra/Projects/Solidity/blockchain-asset-registry/contracts/OwnableAssetRegistry.sol",
  "compiler": {
    "name": "solc",
    "version": "0.5.2+commit.1df8f40c.Emscripten.clang"
  },
  "schemaVersion": "3.0.3",
  "updatedAt": "2019-03-18T22:16:47.991Z",
  "devdoc": {
    "details": "creates and indexes OwnableAsset contracts",
    "methods": {
      "newAsset(string)": {
        "details": "Add data to the _data array",
        "params": {
          "_data": "string data"
        }
      }
    },
    "title": "OwnableAssetRegistry"
  },
  "userdoc": {
    "methods": {}
  }
}