{
    "contractName": "OwnableAsset",
    "abi": [
        {
            "constant": false,
            "inputs": [],
            "name": "renounceOwnership",
            "outputs": [],
            "payable": false,
            "stateMutability": "nonpayable",
            "type": "function"
        },
        {
            "constant": false,
            "inputs": [
                {
                    "name": "_data",
                    "type": "string"
                }
            ],
            "name": "appendData",
            "outputs": [
                {
                    "name": "",
                    "type": "bool"
                }
            ],
            "payable": false,
            "stateMutability": "nonpayable",
            "type": "function"
        },
        {
            "constant": true,
            "inputs": [],
            "name": "owner",
            "outputs": [
                {
                    "name": "",
                    "type": "address"
                }
            ],
            "payable": false,
            "stateMutability": "view",
            "type": "function"
        },
        {
            "constant": true,
            "inputs": [],
            "name": "isOwner",
            "outputs": [
                {
                    "name": "",
                    "type": "bool"
                }
            ],
            "payable": false,
            "stateMutability": "view",
            "type": "function"
        },
        {
            "constant": true,
            "inputs": [
                {
                    "name": "",
                    "type": "uint256"
                }
            ],
            "name": "data",
            "outputs": [
                {
                    "name": "",
                    "type": "string"
                }
            ],
            "payable": false,
            "stateMutability": "view",
            "type": "function"
        },
        {
            "constant": false,
            "inputs": [
                {
                    "name": "newOwner",
                    "type": "address"
                }
            ],
            "name": "transferOwnership",
            "outputs": [],
            "payable": false,
            "stateMutability": "nonpayable",
            "type": "function"
        },
        {
            "constant": true,
            "inputs": [],
            "name": "versionIndex",
            "outputs": [
                {
                    "name": "",
                    "type": "uint256"
                }
            ],
            "payable": false,
            "stateMutability": "view",
            "type": "function"
        },
        {
            "payable": false,
            "stateMutability": "nonpayable",
            "type": "fallback"
        },
        {
            "anonymous": false,
            "inputs": [
                {
                    "indexed": true,
                    "name": "previousOwner",
                    "type": "address"
                },
                {
                    "indexed": true,
                    "name": "newOwner",
                    "type": "address"
                }
            ],
            "name": "OwnershipTransferred",
            "type": "event"
        },
        {
            "anonymous": false,
            "inputs": [
                {
                    "indexed": true,
                    "name": "data",
                    "type": "string"
                },
                {
                    "indexed": true,
                    "name": "versionIndex",
                    "type": "uint256"
                }
            ],
            "name": "AppendedData",
            "type": "event"
        }
    ],
    "bytecode": "0x6080604081905260028054600160a060020a031916331790819055600160a060020a0316906000907f8be0079c531659141344cd1fd0a4f28419497f9722a3daafe3b4186f6b6457e0908290a36105d68061005b6000396000f3fe608060405234801561001057600080fd5b506004361061009a576000357c0100000000000000000000000000000000000000000000000000000000900480638f32d59b116100785780638f32d59b14610182578063f0ba84401461018a578063f2fde38b1461021c578063ff1d2712146102425761009a565b8063715018a61461009c5780637a59dc80146100a45780638da5cb5b1461015e575b005b61009a61025c565b61014a600480360360208110156100ba57600080fd5b8101906020810181356401000000008111156100d557600080fd5b8201836020820111156100e757600080fd5b8035906020019184600183028401116401000000008311171561010957600080fd5b91908080601f0160208091040260200160405190810160405280939291908181526020018383808284376000920191909152509295506102c6945050505050565b604080519115158252519081900360200190f35b6101666103a7565b60408051600160a060020a039092168252519081900360200190f35b61014a6103b7565b6101a7600480360360208110156101a057600080fd5b50356103c8565b6040805160208082528351818301528351919283929083019185019080838360005b838110156101e15781810151838201526020016101c9565b50505050905090810190601f16801561020e5780820380516001836020036101000a031916815260200191505b509250505060405180910390f35b61009a6004803603602081101561023257600080fd5b5035600160a060020a031661046f565b61024a61048e565b60408051918252519081900360200190f35b6102646103b7565b151561026f57600080fd5b600254604051600091600160a060020a0316907f8be0079c531659141344cd1fd0a4f28419497f9722a3daafe3b4186f6b6457e0908390a36002805473ffffffffffffffffffffffffffffffffffffffff19169055565b6001805480820180835560009283528351909161030c917fb10e2d527612073b26eecdfd717e6a320cf44b4afac2b0732d9fcbe2b7fa0cf6909101906020860190610512565b50506001546000190160008190556040518351849190819060208401908083835b6020831061034c5780518252601f19909201916020918201910161032d565b5181516020939093036101000a60001901801990911692169190911790526040519201829003822093507ff473313a26f504e39f730d568ace3fcdeea7e5c8bcaa13fc520fb6fe4e5e380392506000919050a3506001919050565b600254600160a060020a03165b90565b600254600160a060020a0316331490565b60018054829081106103d657fe5b600091825260209182902001805460408051601f60026000196101006001871615020190941693909304928301859004850281018501909152818152935090918301828280156104675780601f1061043c57610100808354040283529160200191610467565b820191906000526020600020905b81548152906001019060200180831161044a57829003601f168201915b505050505081565b6104776103b7565b151561048257600080fd5b61048b81610494565b50565b60005481565b600160a060020a03811615156104a957600080fd5b600254604051600160a060020a038084169216907f8be0079c531659141344cd1fd0a4f28419497f9722a3daafe3b4186f6b6457e090600090a36002805473ffffffffffffffffffffffffffffffffffffffff1916600160a060020a0392909216919091179055565b828054600181600116156101000203166002900490600052602060002090601f016020900481019282601f1061055357805160ff1916838001178555610580565b82800160010185558215610580579182015b82811115610580578251825591602001919060010190610565565b5061058c929150610590565b5090565b6103b491905b8082111561058c576000815560010161059656fea165627a7a72305820b453b077ecc84282265ba69a650fe307c1a3cf13034e2fa5940bb06359e09d3e0029",
    "source": "pragma solidity ^0.5.2;\n\nimport \"./Versioned.sol\";\nimport \"node_modules/openzeppelin-solidity/contracts/ownership/Ownable.sol\";\n\n/**\n * @title OwnableAsset\n * @dev Register whatever you own in the Ethereum blockchain\n * blockchainassetregistry.com\n */\ncontract OwnableAsset is Versioned, Ownable {\n}\n",
    "sourcePath": "/Users/GustavoIbarra/Projects/Solidity/blockchain-asset-registry/contracts/OwnableAsset.sol",
    "compiler": {
        "name": "solc",
        "version": "0.5.2+commit.1df8f40c.Emscripten.clang"
    },
    "schemaVersion": "3.0.3",
    "updatedAt": "2019-03-18T18:56:33.553Z",
    "devdoc": {
        "details": "Register whatever you own in the Ethereum blockchain blockchainassetregistry.com",
        "methods": {
            "appendData(string)": {
                "details": "Add data to the _data array",
                "params": {
                    "_data": "string data"
                }
            },
            "isOwner()": {
                "return": "true if `msg.sender` is the owner of the contract."
            },
            "owner()": {
                "return": "the address of the owner."
            },
            "renounceOwnership()": {
                "details": "Allows the current owner to relinquish control of the contract. It will not be possible to call the functions with the `onlyOwner` modifier anymore."
            },
            "transferOwnership(address)": {
                "details": "Allows the current owner to transfer control of the contract to a newOwner.",
                "params": {
                    "newOwner": "The address to transfer ownership to."
                }
            }
        },
        "title": "OwnableAsset"
    },
    "userdoc": {
        "methods": {
            "renounceOwnership()": {
                "notice": "Renouncing ownership will leave the contract without an owner, thereby removing any functionality that is only available to the owner."
            }
        }
    }
}